:200000000C940D050C94EF120C94C8120C9435050C9435050C9435050C9435050C943505D1
:200020000C9435050C9435050C9435050C9435050C9435050C9435050C9435050C943505F0
:200040000C947E120C9435050C943C130C9416130C9435050C9435050C9435050C94350576
:200060000C9435050C9435054E414E494E495459494E46CDCCCC3D0AD7233C17B7D1387755
:20008000CC2B329595E6241FB14F0A000020410000C84200401C4620BCBE4CCA1B0E5AAEEC
:2000A000C59D745F74726967676572733D0020005F646976696465723D0020005F667073FC
:2000C0003D0020005F70696E3D0020005F656E61626C65643D00200020736B697070656429
:2000E0005F636C6F636B5F7469636B733D0020636F7272656374696F6E5F72656D61696EA8
:20010000696E675F75733D002070686173655F6572726F725F75733D0020636C6F636B5F54
:20012000636865636B733D00206C6561726E65645F706572696F645F75733D0020636C6F52
:20014000636B5F6C6F636B65643D0063616D320063616D31002070756C73655F776964749E
:20016000685F75733D0020747269676765725F64656C61795F75733D002073796E635F69E8
:200180006E746572727570745F63617061626C653D004F4B20434F4E464947555245207388
:2001A000796E635F70696E3D004552522066707320697320746F6F206869676820666F722B
:2001C0002074686520666978656420333030302075732070756C73652077696474680045D5
:2001E000525220667073206D757374206469766964652074686520363020487A2070726F3A
:200200006A6563746F7220726174652065786163746C792C20652E672E2036302C203330C8
:200220002C2032302C2031352C2031322C2031302C20362C20352C20342C20332C20322C56
:200240002031004552522043616D6572612070696E73206D75737420626520646966666533
:2002600072656E74004552522043616D6572612070696E73206D757374206E6F7420757337
:20028000652070726F6A6563746F722073796E632070696E2032004552522043616D65727A
:2002A000612070696E73206D757374206E6F74207573652068617264776172652073657264
:2002C00069616C2070696E732030206F722031004552522050696E73206D757374206265F9
:2002E000206265747765656E203020616E6420323535004F4B205245414459206475616CA0
:200300005F63616D6572615F70726F6A6563746F725F73796E630063616D320063616D31FD
:200320000020676174655F617373657274733D0020676174655F73746174653D00206761F5
:2003400074655F70696E3D0020706C6F745F706572696F645F6D733D0020706C6F745F70F6
:20036000696E323D002070756C73655F77696474685F75733D0020747269676765725F6414
:20038000656C61795F75733D00206C6173745F73796E635F6167655F6D733D002073796EBC
:2003A000635F76697369626C653D00706F6C6C696E6700696E746572727570740020737962
:2003C0006E635F7365656E3D00206261636B6C6F676765645F70726F6A6563746F725F70DC
:2003E000756C7365733D0020657870697265645F63616D6572615F74726967676572733DB8
:20040000002070726F6A6563746F725F70756C7365733D002070726F6A6563746F725F68ED
:200420007A3D002073796E635F696E746572727570745F63617061626C653D0063616C69DF
:2004400062726174696E67006C6561726E65645F636C6F636B002073796E635F6D6F64658E
:200460003D002073796E635F70696E3D0020747269676765725F6D6F64653D004F4B20531D
:2004800054415455532072756E6E696E673D002064657461696C3D737570707265737365B3
:2004A000645F647572696E675F6163717569736974696F6E002073796E635F76697369628F
:2004C0006C653D0063616C6962726174696E67006C6561726E65645F636C6F636B002067C1
:2004E0006174655F73746174653D0020657870697265645F63616D6572615F7472696767B0
:200500006572733D002063616D325F74726967676572733D002063616D315F7472696767D0
:200520006572733D002070726F6A6563746F725F70756C7365733D004F4B205354415455B9
:20054000532072756E6E696E673D3120747269676765725F6D6F64653D004F4B20504C4FBF
:2005600054204F4E2070696E3D3220706572696F645F6D733D004552522043616E6E6F7409
:2005800020706C6F742070696E32207768696C652070696E3220697320636F6E666967750A
:2005A00072656420617320612063616D657261206F75747075740045525220706C6F742049
:2005C000706572696F645F6D73206D757374206265206265747765656E203120616E6420BB
:2005E00031303030004552522043616E6E6F742073746172742070696E3220706C6F7420E8
:20060000647572696E6720616374697665206163717569736974696F6E3B2073656E6420C7
:200620004F46462066697273740045525220504C4F542072657175697265733A204F4E20A8
:200640005B706572696F645F6D735D206F72204F4646004F4B20504C4F54204F46460045EB
:20066000525220504C4F542072657175697265733A204F4E205B706572696F645F6D735D56
:20068000206F72204F4646004F4B20535441525450494E2070696E3D004552522047617466
:2006A000652070696E206D757374206E6F742075736520612063616D657261206F757470B5
:2006C00075742070696E0045525220476174652070696E206D757374206E6F742075736512
:2006E0002070726F6A6563746F722073796E632070696E2032004552522047617465207052
:20070000696E206D757374206E6F74207573652068617264776172652073657269616C200D
:2007200070696E732030206F722031004552522050696E73206D757374206265206265748F
:200740007765656E203020616E64203235350045525220535441525450494E207265717530
:20076000697265733A20535441525450494E203C70696E3E004552522043616D65726120A4
:2007800070696E73206D75737420626520646966666572656E74004552522043616D657207
:2007A000612070696E73206D757374206E6F74207573652070726F6A6563746F7220737933
:2007C0006E632070696E2032004552522043616D6572612070696E73206D757374206E6F7D
:2007E00074207573652068617264776172652073657269616C2070696E732030206F7220BF
:2008000031004552522050696E73206D757374206265206265747765656E203020616E6487
:2008200020323535004552522050696E73206D757374206265206265747765656E2030200F
:20084000616E64203235350045525220434F4E46494755524520616363657074732065690D
:20086000746865722032206F7220342076616C7565733A2063616D315F70696E2063616DBB
:20088000315F667073205B63616D325F70696E2063616D325F6670735D0045525220434FD8
:2008A0004E4649475552452072657175697265733A2070696E20667073205B70696E206646
:2008C00070735D0045525220434F4E4649475552452043414D312F43414D322072657175FC
:2008E000697265733A20434F4E4649475552452043414D312070696E20667073004552526E
:2009000020434F4E4649475552452072657175697265733A205B43414D317C43414D325DF2
:200920002070696E20667073206F722070696E20667073205B70696E206670735D004552F7
:200940005220556E6B6E6F776E20636F6D6D616E643A2000706F6C6C696E6700696E746537
:200960007272757074002073796E635F6D6F64653D004F4B204F4E2077616974696E675F53
:20098000666F725F70726F6A6563746F725F73796E633D004F4B204F4646004F4B20504F92
:2009A0004E470045525220436F6D6D616E6420746F6F206C6F6E670070696E323A000000E5
:2009C0000000240027002A0000000000250028002B000000000023002600290004040404A8
:2009E000040404040202020202020303030303030102040810204080010204081020010288
:200A00000408102000000008000201000003040700000000000000006E1311241FBECFEF30
:200A2000D8E0DEBFCDBF23E0A8EEB1E001C01D92AB35B207E1F711E0A0E0B1E0E6E0FFE320
:200A400002C005900D92A83EB107D9F715E0CDE0D5E004C02197FE010E94681FCC30D10763
:200A6000C9F70E94A3130C94811F0C940000833081F028F4813099F08230A9F00895873065
:200A8000A9F08830C9F08430B1F4809180008F7D03C0809180008F7780938000089584B593
:200AA0008F7784BD089584B58F7DFBCF8091B0008F778093B00008958091B0008F7DF9CF87
:200AC000CF93DF93E6E0FAE08491E2EFF9E0D491EEEDF9E0C491CC23A1F081110E94370585
:200AE000EC2FF0E0EE0FFF1FEE52F64FA591B491EC91ED2381E090E009F480E0DF91CF9165
:200B0000089580E090E0FACF1F93CF93DF93282F30E0F901EC5FF54F8491F901E051F64FA4
:200B2000D491F901E452F64FC491CC23A9F0162F81110E943705EC2FF0E0EE0FFF1FE85308
:200B4000F64FA591B4918FB7F894EC91111108C0D095DE23DC938FBFDF91CF911F9108955C
:200B6000DE2BF8CFCF93DF9390E0FC01E051F64F24918452964FFC0184918823D1F090E090
:200B8000880F991FFC01E254F64FA591B491FC01E853F64FC591D49161110EC09FB7F894B9
:200BA0008C91E22FE0958E238C932881E223E8839FBFDF91CF9108958FB7F894EC91E22B82
:200BC000EC938FBFF6CF3FB7F8948091B2029091B302A091B402B091B50226B5A89B05C0A4
:200BE0002F3F19F00196A11DB11D3FBFBA2FA92F982F8827BC01CD01620F711D811D911D50
:200C000042E0660F771F881F991F4A95D1F708950895AF92BF92CF92DF92EF92FF920F934F
:200C20001F93CF93DF936C017B018B01040F151FEB015E01AE18BF08C017D10759F06991A8
:200C4000D601ED91FC910190F081E02DC6010995892B79F7C501DF91CF911F910F91FF90A5
:200C6000EF90DF90CF90BF90AF900895FC01538D448D252F30E0842F90E0821B930B541721
:200C800010F0CF96089501970895FC01918D828D981761F0A28DAE0FBF2FB11D5D968C913B
:200CA000928D9F5F9F73928F90E008958FEF9FEF0895FC01918D828D981731F0828DE80F2E
:200CC000F11D858D90E008958FEF9FEF0895FC01918D228D892F90E0805C9F4F821B91094B
:200CE0008F739927089586EB92E00E94670621E0892B09F420E0822F089580E090E0892B1F
:200D000029F00E94730681110C9400000895FC01A48DA80FB92FB11DA35ABF4F2C91848D5C
:200D200090E001968F739927848FA689B7892C93A089B1898C91837080648C93938D848D02
:200D4000981306C00288F389E02D80818F7D80830895EF92FF920F931F93CF93DF93EC013B
:200D600081E0888F9B8D8C8D98131AC0E889F989808185FF15C09FB7F894EE89FF89608324
:200D8000E889F98980818370806480839FBF81E090E0DF91CF911F910F91FF90EF9008958B
:200DA000F62E0B8D10E00F5F1F4F0F731127E02E8C8D8E110CC00FB607FCFACFE889F989DB
:200DC000808185FFF5CFCE010E948706F1CFEB8DEC0FFD2FF11DE35AFF4FF0829FB7F89480
:200DE0000B8FEA89FB8980818062CFCFCF93DF93EC01888D8823B9F0AA89BB89E889F9894D
:200E00008C9185FD03C0808186FD0DC00FB607FCF7CF8C9185FFF2CF808185FFEDCFCE011F
:200E20000E948706E9CFDF91CF910895CF92DF92EF92FF92CF93DF93EC010E94E3056B01C3
:200E40007C018B89882399F0888D998DAA8DBB8DA7019601281B390B4A0B5B0BDA01C901ED
:200E6000B7FD05C060E089810E9484051B8A8A89882351F18C899D89AE89BF89A7019601E6
:200E8000281B390B4A0B5B0BDA01C901B7FD1CC01A8A2B89211105C0883B9B40A105B10592
:200EA000D0F08091FE019091FF01A0910002B09101020196A11DB11D8093FE019093FF0172
:200EC000A0930002B0930102DF91CF91FF90EF90DF90CF90089561E089810E94840581E077
:200EE0008B8B48EBC40E4BE0D41EE11CF11CC88ED98EEA8EFB8E8C8D9D8DAE8DBF8D019691
:200F0000A11DB11D8C8F9D8FAE8FBF8FDDCFCF93C82F809104018F3FF1F06C2F0E948405E3
:200F2000CC23B9F080910202811113C08091ED019091EE01A091EF01B091F0010196A11DE8
:200F4000B11D8093ED019093EE01A093EF01B093F001C0930202CF910895CF93DF93CDB7AD
:200F6000DEB7EA970FB6F894DEBF0FBECDBFF8941092FA011092FB011092FC011092FD010E
:200F80001092F6011092F7011092F8011092F90178941092E8011092E9011092EA01109295
:200FA000EB011092F1011092F2011092F3011092F4011092FE011092FF0110920002109266
:200FC00001021092F501FE0131968AE3DF011D928A95E9F781E08A838AE3A5E4B1E001902F
:200FE0000D928A95E1F7EA960FB6F894DEBF0FBECDBFDF91CF910895CF93DF93EC0160E026
:2010000089810E9484051A8A1B8ADF91CF9108951092AB028091050181112FC01092170144
:20102000109218011092190110921A0110921B0110921C0110921D0110921E0110921F01BC
:201040001092200110921301109214011092150110921601109221011092220110922301A0
:201060001092240180912501882361F085E291E00E94FC0780E00C94870785E091E00E94F3
:20108000FC07F0CF10923701109238011092390110923A0110923B0110923C0110923D0183
:2010A00010923E0110923F0110924001109233011092340110923501109236011092410148
:2010C000109242011092430110924401D3CF2F923F924F925F926F927F928F929F92AF92B3
:2010E000BF92CF92DF92EF92FF920F931F93CF93DF93CDB7DEB72A970FB6F894DEBF0FBEFE
:20110000CDBF982EB62E29013A0118018F8D98A1A9A1BAA189839A83AB83BC83ABA1BCA1E2
:20112000BE83AD838DA19EA1AFA1B8A58F839887A987BA8760E0809106010E94840560E0BF
:20114000809126010E9484050091060110912601992019F00B1509F42BC1AA2011F0081519
:2011600021F060E0802F0E94B205011741F091101FC1A110C2C060E0812F0E94B2059092AE
:201180000501B092060140920701509208016092090170920A0130920C0120920B01C09253
:2011A0000F01D0921001E0921101F092120110920E0110920D01109217011092180110921B
:2011C000190110921A0110921B0110921C0110921D0110921E0110921F0110922001109213
:2011E000130110921401109215011092160110922101109222011092230110922401A0926B
:201200002501AA2009F4BFC08092260189819A81AB81BC818093270190932801A0932901B7
:20122000B0932A01AD81BE81B0932C01A0932B018F819885A985BA8580932F0190933001D3
:20124000A0933101B093320110922E0110922D0110923701109238011092390110923A01A4
:2012600010923B0110923C0110923D0110923E0110923F011092400110923301109234017E
:20128000109235011092360110924101109242011092430110924401992049F061E08091C3
:2012A00006010E94B20585E091E00E94FC0780912501882309F47FC061E0809126010E941A
:2012C000B20585E291E02A960FB6F894DEBF0FBECDBFDF91CF911F910F91FF90EF90DF90DB
:2012E000CF90BF90AF909F908F907F906F905F904F903F902F900C94FC0718113CCF909250
:201300000501B092060140920701509208016092090170920A0130920C0120920B01C092D1
:201320000F01D0921001E0921101F092120110920E0110920D011092170110921801109299
:20134000190110921A0110921B0110921C0110921D0110921E0110921F0110922001109291
:2013600013011092140110921501109216011092210110922201109223011092240181E0BA
:201380008093250141CF10922701109228011092290110922A0110922C0110922B01109297
:2013A0002F011092300110923101109232014CCF1B11DFCEE4CE2A960FB6F894DEBF0FBE60
:2013C000CDBFDF91CF911F910F91FF90EF90DF90CF90BF90AF909F908F907F906F905F90AC
:2013E0004F903F902F9008950F931F93AB01BC018091FA019091FB01A091FC01B091FD0190
:20140000892B8A2B8B2BA9F08091F6019091F701A091F801B091F9018A019B01081B190B20
:201420002A0B3B0BD901C80180349F41A105B105DCF08091FA019091FB01A091FC01B0913A
:20144000FD010196A11DB11D8093FA019093FB01A093FC01B093FD014093F6015093F70128
:201460006093F8017093F9011F910F9108950E94E3050C94F4092F923F924F925F926F920A
:201480007F928F929F92AF92BF92CF92DF92EF92FF920F931F93CF93DF93CDB7DEB7689733
:2014A0000FB6F894DEBF0FBECDBF80910302811117C00E94600501E009838130910509F0B2
:2014C0001982019751F48091EC01811106C0F8940E94E3050E94F409789419811093EC0153
:2014E000F8948091FA019091FB01A091FC01B091FD014090F6015090F7016090F801709042
:20150000F9017894C090E801D090E901E090EA01F090EB018C159D05AE05BF0509F478C08C
:201520004091F1015091F2016091F3017091F401480F591F6A1F7B1F415051096109710978
:201540004C195D096E097F094093F1015093F2016093F3017093F4018093E8019093E9013E
:20156000A093EA01B093EB0140916F0150917001609171017091720184179507A607B70712
:2015800009F446C020914501C0907301D0907401E0907501F090760180936F0190937001C4
:2015A000A0937101B09372014092730150927401609275017092760130914601311136C210
:2015C00080915B0190915C01A0915D01B0915E01A3019201281B390B4A0B5B0BDA01C901D3
:2015E0008115934AA14EB14198F081E08093460110927B0110927C0110927D0110927E01D6
:2016000040927701509278016092790170927A01809145018093F5010E94E305209145015B
:20162000222309F49AC100914B0110914C0120914D0130914E010D871E872F87388BDC01A4
:20164000CB01801B910BA20BB30BB7FD86C120914701309148014091490150914A01298B23
:201660003A8B4B8B5C8B19012A018C019D0140E050E0BA0189831A83AB833C834D835E8326
:201680006F8378879C014B815C8160E070E080E090E000E10E94291F51016201E12CF12C09
:2016A00000E010E00E94CC1E29873A874B875C8769857A858B859C85672B682B692B09F4D4
:2016C00073C08091530190915401A0915501B09156018D8B9E8BAF8BB88F60E070E080E02B
:2016E00090E00E94721EC0905701D0905801E0905901F0905A0156016701E12CF12C0E94B7
:201700005F1F49015A0100E10E94441F29833A834B835C836D837E838F8398878D859E8553
:20172000AF85B88909811A812B813C81800F911FA21FB31F80934B0190934C01A0934D0184
:20174000B0934E01AA24BB248092570190925801A0925901B0925A018D899E89AF89B88D82
:2017600029853A854B855C85820F931FA41FB51F8093530190935401A0935501B09356016F
:201780008091630190916401A0916501B0916601820F931FA41FB51F809363019093640136
:2017A000A0936501B0936601C0904B01D0904C01E0904D01F0904E01C0924F01D0925001BB
:2017C000E0925101F09252018090530190905401A0905501B0905601D501C4010196A11D8A
:2017E000B11D8093530190935401A0935501B093560140916B0150916C0160916D0170912E
:201800006E01DB01CA014D3F3FEF53076307730724F48DEF9FEFAFEFBFEF84309105A1055C
:20182000B10524F083E090E0A0E0B0E0481B590B6A0B7B0B40936B0150936C0160936D0149
:2018400070936E01DC019927882749895A896B897C89840F951FA61FB71F40915701509130
:2018600058016091590170915A01840F951FA61FB71FAD01662777274C0D5D1D6E1D7F1DB3
:2018800040934B0150934C0160934D0170934E01AA27BB278093570190935801A09359013F
:2018A000B0935A018091AB02882309F456C080910501882339F120910B0130910C0150E067
:2018C00040E0C501B4010E94311E20910D0130910E012901712C612C64157505860597057F
:2018E00089F481E080931701D701C6018059984EAF4FBF4F8093190190931A01A0931B01BB
:20190000B0931C0180912501882339F120912B0130912C0150E040E0C501B4010E94311ED4
:2019200020912D0130912E014901B12CA12C681579058A059B0589F481E08093370150E75A
:20194000C50E57E1D51EE11CF11CC0923901D0923A01E0923B01F0923C0180910501811140
:2019600080C110921701109218011092190110921A0110921B0110921C0110921D01109259
:201980001E0110921F0110922001109213011092140110921501109216011092210110925F
:2019A000220110922301109224018091250181115DC110923701109238011092390110925D
:2019C0003A0110923B0110923C0110923D0110923E0110923F011092400110923301109211
:2019E000340110923501109236011092410110924201109243011092440168960FB6F8941C
:201A0000DEBF0FBECDBFDF91CF911F910F91FF90EF90DF90CF90BF90AF909F908F907F90E9
:201A20006F905F904F903F902F900895411551056105710509F4DCCD841B950BA60BB70BCE
:201A40000197A105B10509F0D3CDD301C20188599A43A109B1098C199D09AE09BF098D3AAF
:201A60009D40A105B10508F0C3CD80917B0190917C01A0917D01B0917E010196A11DB11DE8
:201A800080937B0190937C01A0937D01B0937E0188379105A105B10508F4BACD211177C007
:201AA0008091770190917801A0917901B0917A0193018201081B190B2A0B3B0B40E050E073
:201AC000BA0109831A832B833C834D835E836F83788798014B815C8160E070E080E090E071
:201AE00000E10E94291FE8E7AE2EB12CC12CD12CE12CF12C00E010E00E94CC1E2093470128
:201B0000309348014093490150934A0140924F0150925001609251017092520140924B0162
:201B200050924C0160924D0170924E0110925701109258011092590110925A011092530101
:201B400010925401109255011092560181E08093450140925B0150925C0160925D01709224
:201B60005E0180915F0190916001A0916101B09162010196A11DB11D80935F0190936001C2
:201B8000A0936101B09362011092460141CD8090470190904801A0904901B0904A0110E855
:201BA000910EA11CB11C4501AA24BB2480914F0190915001A0915101B0915201A3019201E8
:201BC000281B390B4A0B5B0BCA01B901A50194010E94531E6B017C01D501C401B595A795E6
:201BE000979587958C159D05AE05BF0524F4C818D908EA08FB08C501B40122E030E040E068
:201C000050E00E94531E50954095309521953F4F4F4F5F4FC216D306E406F50624F4C80CF0
:201C2000D91CEA1CFB1CC0926701D0926801E0926901F0926A01D701C601C296A11DB11DC1
:201C400085369105A105B10518F4C12CD12C7601C0926B01D0926C01E0926D01F0926E010C
:201C600078CF85E091E00E9416079FCE85E291E068960FB6F894DEBF0FBECDBFDF91CF912E
:201C80001F910F91FF90EF90DF90CF90BF90AF909F908F907F906F905F904F903F902F90D2
:201CA0000C941607CF93C62F0E943B0A86EB92E00E94360618161906BCF76C2F86EB92E0EA
:201CC000CF910C94A9060F931F93CF93DF938C01D0E0C0E0F801EC0FFD1F6491662341F091
:201CE00083E593E00E94520E892B11F02196F2CFCE01DF91CF911F910F910895089590E041
:201D000080E00895FC0101900020E9F73197AF01481B590BBC0183E593E00C94090681EA47
:201D200091E00C94820ECF93DF930E94630EEC010E948F0E8C0F9D1FDF91CF9108954F924A
:201D40005F926F927F928F929F92AF92BF92CF92DF92EF92FF920F931F93CF93DF936B0124
:201D60007C01EA01890120E030E0A9010E94A11B18160CF062C020E030E040E752E4C701D8
:201D8000B6010E94271E18160CF457C0A701960160E070E080E792E40E94861D20E030E05F
:201DA00040E05FE30E941A1D0E94F81D2B016115710509F442C090E080E00E94A61B9B014B
:201DC000AC0160E070E080E792E40E94861DA70196010E94191D4B015C0120E030E0A9012A
:201DE0000E94A11B87FF04C0B7FAB094B7F8B0942FE632E143E85AE3C501B4010E94271E61
:201E00001816DCF059824882A701960160E074E284E799E40E94861D20E030E040E05FE3AF
:201E20000E941A1D0E94F81D693B2BE072078105910548F489EA91E002C08FED91E00E945D
:201E4000930E80E006C0F801608371838283938381E0DF91CF911F910F91FF90EF90DF90D2
:201E6000CF90BF90AF909F908F907F906F905F904F9008958F929F92AF92BF920F931F9376
:201E8000CF93DF93CDB7DEB7A1970FB6F894DEBF0FBECDBF19A2423008F44AE08E010F5D88
:201EA0001F4F842E912CB12CA12CA50194010E94311EE62FB901CA01EA30F4F4E05DD801BD
:201EC000EE938D01232B242B252B79F790E080E0109719F0CD010E94820EA1960FB6F8948E
:201EE000DEBF0FBECDBFDF91CF911F910F91BF90AF909F908F900895E95CE1CF4AE00C9494
:201F00003A0F4F925F926F927F928F929F92AF92BF92CF92DF92EF92FF920F931F93CF9316
:201F20006B017C01742EAC019B010E942C1E882399F084EA91E0CF911F910F91FF90EF9010
:201F4000DF90CF90BF90AF909F908F907F906F905F904F900C94820E46015701E894B7F801
:201F60002FEF3FEF4FE75FE7C501B4010E942C1E81110DC02FEF3FEF4FE75FE7C501B40190
:201F80000E94A11B18161CF488EA91E0D4CF2FEF3FEF4FE75FE4C701B6010E94271E1816C6
:201FA0001CF48CEA91E0C7CF2FEF3FEF4FE75FECC701B6010E94A11B87FDF3CF20E030E094
:201FC000A901C701B6010E94A11B10E000E087FF0AC06DE283E593E00E94520E8C01F7FAB0
:201FE000F094F7F8F094C0E060E070E080E09FE37C1641F020E030E040E251E40E94861D69
:20200000CF5FF6CFA70196010E941A1D2B013C010E94F81D4B015C014AE00E943A0F7C015A
:20202000E00EF11ECC23C1F1C501B4010E94A61B9B01AC01C301B2010E94191D4B015C01E3
:202040006EE283E593E00E94520EE80EF91EC15018F120E030E040E251E4C501B4010E94A8
:20206000071C2B013C010E94F81D4B01B12CA12C4AE0C501B4010E943A0FE80EF91EC501C4
:20208000B4010E94A61B9B01AC01C301B2010E94191D4B015C01DBCFC701CF911F910F91C5
:2020A000FF90EF90DF90CF90BF90AF909F908F907F906F905F904F900895CF92DF92EF929C
:2020C000FF92CF93DF9397FF1BC06B017C016DE283E593E00E94520EEC0166277727CB0131
:2020E0006C197D098E099F094AE00E943A0F8C0F9D1FDF91CF91FF90EF90DF90CF900895E1
:202100004AE0DF91CF91FF90EF90DF90CF900C943A0FBC01990F880B990B0C945D10CF93F5
:20212000DF938CE391E00E94630EC5E4D1E0888190E00E94891088E291E00E94630E6A8153
:202140007B818C819D810E94A61B20E030E040E857E30E94071C44E00E94810F89E191E08D
:202160000E94630E6A8D7B8D8C8D9D8D0E947E0F88E091E00E94630E6AA17BA18CA19DA15D
:202180000E945D108EEE90E00E94630E6EA17FA188A599A50E945D1088ED90E00E94630E90
:2021A0006E8D7F8D88A199A1DF91CF910C947E0F0F931F93CF93DF938C01EB0186ED90E034
:2021C0000E94630EC8010E94630E8CEC90E00E94630E888190E00E9489108AEC90E00E94D9
:2021E000630EC8010E94630E84EC90E00E94630E698170E090E080E04AE00E943A0F82EC12
:2022000090E00E94630EC8010E94630E8CEB90E00E94630E6A817B818C819D8146E00E948B
:20222000810F8AEB90E00E94630EC8010E94630E80EB90E00E94630E6E817F8190E080E08D
:202240004AE00E943A0F8EEA90E00E94630EC8010E94630E83EA90E00E94630E6C8D7D8D9F
:202260008E8D9F8DDF91CF911F910F910C947E0F82E991E00E94630E4AE062E070E080E0BF
:2022800090E00E943A0F89E791E00E94630E81E090E00E94891086E691E00E94630E60E7AC
:2022A00077E180E090E00E947E0F85E591E00E94630E68EB7BE080E090E00E947E0F65E0E7
:2022C00071E080E591E00E94D81065E271E08BE491E00E94D8100C948F0E2F923F924F929B
:2022E0005F926F927F928F929F92AF92BF92CF92DF92EF92FF920F931F93CF93DF93CDB767
:20230000DEB764970FB6F894DEBF0FBECDBF2A013B011801922EB32E823058F41FEF411662
:20232000510461047104F1F0E8F080ED92E00E94930E64960FB6F894DEBF0FBECDBFDF91E2
:20234000CF911F910F91FF90EF90DF90CF90BF90AF909F908F907F906F905F904F903F906A
:202360002F90089592E0491651046104710418F487E992E0DCCF12E04116510461047104F0
:2023800019F485E692E0D3CFE1E0E8271E2F11701B8B80E2E89FF0011124EB5FFE4F8081C6
:2023A000882361F0818190E0B0E0A0E0481659066A067B0619F483E492E0B9CF81E090E0B2
:2023C0009E838D8319821A821B821C829E012F5F3F4FAE014B5F5F4FB101892D9B2D0E94C6
:2023E0009F0E8F83882309F4A4CF909105019C8B90910601509107014091080130910901FF
:2024000020910A0170910B0160910C01B0910F01A0911001F0911101E0911201A0902501F5
:2024200080902601109127011987109128011A87109129011B8710912A011C8710912B01E8
:202440001D8710912C011E8710912F011F8710913001188B10913101198B109132011A8B89
:2024600048860D811E81C980DA80EB80FC808B89811119C0CF86D88AE98AFA8A0D871E8771
:2024800029863A869B86BC86842CAF80CB2EDA2EEF2EFE2E072F162F252E342E932EB22E70
:2024A00098879C899F830E9408088A898F9399899F9388898F939F859F938E858F939D859B
:2024C0009F938C858F939B859F938A858F9399859F939101492D5B2D68858F810E94670826
:2024E00060E082E00E94B2050E94AD070E9438110FB6F894DEBF0FBECDBF1BCF1F920F921D
:202500000FB60F9211242F933F938F939F93AF93BF938091AE029091AF02A091B002B091ED
:20252000B1023091AD0223E0230F2D3758F50196A11DB11D2093AD028093AE029093AF0276
:20254000A093B002B093B1028091B2029091B302A091B402B091B5020196A11DB11D8093F0
:20256000B2029093B302A093B402B093B502BF91AF919F918F913F912F910F900FBE0F9071
:202580001F90189526E8230F0296A11DB11DD2CF1F920F920FB60F9211242F933F934F9377
:2025A0005F936F937F938F939F93AF93BF93EF93FF93E0910201F09103010995FF91EF9172
:2025C000BF91AF919F918F917F916F915F914F913F912F910F900FBE0F901F9018951F9293
:2025E0000F920FB60F9211242F933F934F935F936F937F938F939F93AF93BF93EF93FF9327
:20260000E0910001F09101010995FF91EF91BF91AF919F918F917F916F915F914F913F9187
:202620002F910F900FBE0F901F9018951F920F920FB60F9211242F933F934F935F936F931C
:202640007F938F939F93AF93BF93EF93FF9386EB92E00E948706FF91EF91BF91AF919F918A
:202660008F917F916F915F914F913F912F910F900FBE0F901F9018951F920F920FB60F92AB
:2026800011242F938F939F93EF93FF93E091C602F091C7028081E091CC02F091CD0282FD49
:2026A0001BC090818091CF028F5F8F732091D002821741F0E091CF02F0E0EA54FD4F958F4F
:2026C0008093CF02FF91EF919F918F912F910F900FBE0F901F9018958081F4CFE6EBF2E028
:2026E0001382128288EE93E0A0E0B0E084839583A683B78387E891E09183808385EC90E05E
:202700009587848784EC90E09787868780EC90E0918B808B81EC90E0938B828B82EC90E09E
:20272000958B848B86EC90E0978B868B118E128E138E148EE3E5F3E01382128289E991E02C
:20274000918380830895CF93DF93CDB7DEB768970FB6F894DEBF0FBECDBF789484B582606B
:2027600084BD84B5816084BD85B5826085BD85B5816085BD80916E00816080936E0010927F
:202780008100809181008260809381008091810081608093810080918000816080938000A4
:2027A0008091B10084608093B1008091B00081608093B00080917A00846080937A0080913D
:2027C0007A00826080937A0080917A00816080937A0080917A00806880937A001092C100B4
:2027E00060E082E00E94B20560E082E00E94B20580910501882349F061E0809106010E94ED
:20280000B20585E091E00E94FC0780912501882349F061E0809126010E94B20585E291E0C1
:202820000E94FC0761E089E00E94B20560E089E00E9484050E94E3056093A7027093A80249
:202840008093A9029093AA02E091C602F091C70282E08083E091C202F091C3021082E09185
:20286000C402F091C50280E180831092CE02E091CA02F091CB0286E08083E091C802F091C4
:20288000C902808180618083E091C802F091C902808188608083E091C802F091C90280818D
:2028A00080688083E091C802F091C90280818F7D808360E082E00E94B2050E94600521E093
:2028C000019709F020E02093EC0181E08093030287E39AE0909301018093000180916900B7
:2028E000836080936900E89A83EF92E00E94930E22242394312C0E943B0A10E101E086EB4C
:2029000092E00E946706181619060CF0F3C386EB92E00E9445068D30C1F09091A6028A3076
:2029200001F1911112C0893021F090EE980F9F3560F42091A4023091A502A9014F5F5F4F55
:20294000403A510528F00093A6021150C1F6D2C35093A5024093A4022C5F3D4FF901808390
:20296000F4CF992359F01092A6021092A5021092A40283EA99E00E94930EBCC3E091A402F5
:20298000F091A502EC5FFD4F10821092A5021092A402E4E0F2E001900020E9F73197A4E0E2
:2029A000B2E022E0E430F20741F08291803211F0893019F41082F5CFDF01FD0181918032C1
:2029C000D9F38930C9F3CD012D91222309F4BDCF2F7D21542A31B8F761EC71E00E94EF19E9
:2029E0008C01892B09F486C360EB71E0C8010E946E1F892B19F48BE999E0BDCF65EB71E0E1
:202A0000C8010E946E1F7C01892B09F0D0C1F8948090FA019090FB01A090FC01B090FD01E5
:202A20004090F6015090F7016090F8017090F90178948091AB02882309F47DC088E395E085
:202A40000E94630E8091F501882309F471C080ED94E00E94630E85E295E00E94630EC501DA
:202A6000B4010E947E0F85E195E00E94630E609121017091220180912301909124010E9430
:202A80007E0F85E095E00E94630E609141017091420180914301909144010E947E0F8BEEE2
:202AA00094E00E94630E6091FE017091FF0180910002909101020E947E0F8EED94E00E94A7
:202AC000630E8091020290E00E9489100E948F1085EB94E00E94630E0E94E305F894809067
:202AE000FA019090FB01A090FC01B090FD010091F6011091F7012091F8013091F9017894C2
:202B000089288A288B2871F0601B710B820B930B31E020E0613A7648814091050CF030E04F
:202B2000E32EF22EC7010E9489108FE894E023CF84EC94E08ECF8CE794E00E94630E90E0D9
:202B400080E00E9489108DE694E00E94630E8091F501882309F420C188E494E00E94630E5D
:202B600082E694E00E94630E4AE062E070E080E090E00E943A0F86E594E00E94630E8091EC
:202B80000302882309F40BC183EB93E00E94630E83E294E00E94630E81E090E00E948910D0
:202BA00084E194E00E94630E46E060E070E080E792E40E94810F81E094E00E94630EC501B6
:202BC000B4010E947E0F87EE93E00E94630E6091FE017091FF0180910002909101020E944C
:202BE0007E0F89EC93E00E94630E6091F1017091F2018091F3019091F4010E947E0F8DEBB4
:202C000093E00E94630E81E090E081149104A104B10411F490E080E00E9489108CE993E0E1
:202C20000E94630E0E94E305F8940091FA011091FB012091FC013091FD010D871E872F87E6
:202C4000388B2091F6013091F7014091F8015091F9012D8B3E8B4F8B588F78940D851E8528
:202C60002F853889012B022B032B91F02D893E894F89588D621B730B840B950B31E020E062
:202C8000613A7648814091050CF030E0E32EF22EC7010E94891089E893E00E94630E89289C
:202CA0008A288B2809F47EC00E94E305641975098609970928EE33E040E050E00E94311E56
:202CC000CA01B9010E947E0F86E793E00E94630E60E777E180E090E00E947E0F85E693E0D1
:202CE0000E94630E68EB7BE080E090E00E947E0F89E593E00E94630E8091AC0290E00E944F
:202D0000891088E493E00E94630E60917F0170918001809181019091820128EE33E040E0B5
:202D200050E00E94311ECA01B9010E947E0F8DE393E00E94630E8091040190E08F3F11F46F
:202D40008FEF9FEF0E94891080E393E00E94630E8091020290E00E94891081E293E00E940B
:202D6000630E6091ED017091EE018091EF019091F0010E947E0F65E071E08CE193E00E94B9
:202D8000D81065E271E087E193E00E94D8100E948F100E948F0EAEC18CE394E0DFCE8BEA5A
:202DA00093E0F4CE8FEF9FEF0E9489108DCF6CEB71E0C8010E946E1F892B09F086C061EC5B
:202DC00071E090E080E00E94EF198C0161EC71E090E080E00E94EF197C018FE596E0011506
:202DE000110509F4C8CD64EC71E0C8010E946E1F892B29F41092AC0283E596E0BCCD68ECB6
:202E000071E0C8010E946E1F892B19F08AE296E0B2CD8091AB02882319F085EE95E0ABCD79
:202E2000E114F10491F0C7010E94C8196B017C01D701C6010197A109B109883E9340A10519
:202E4000B10540F087EB95E096CDC12CD12C7601C394EECF80910501882321F080910601E2
:202E6000823041F080912501882339F080912601823019F486E795E07ECD60E082E00E94FC
:202E8000B205A8EEB3E0A70196010E94C81C60937F017093800180938101909382010E94B9
:202EA000E3056093A7027093A8028093A9029093AA0281E08093AC028AE595E00E94630E3B
:202EC000C701B6010E945D1064CF64EC71E0C8010E946E1F892B29F40E94080884E999E02F
:202EE0004ACD68EC71E0C8010E946E1F892BC1F50E9408081092FE011092FF01109200021B
:202F0000109201021092210110922201109223011092240110924101109242011092430147
:202F20001092440111E01093AB0281E00E94870782E799E00E94630E80914501812790E074
:202F40000E94891086E699E00E94630E80910302882319F08CE599E00ECD84E599E00BCDF5
:202F60006BEC71E0C8010E946E1F892B09F061C061EC71E090E080E00E94EF19009719F427
:202F80008FE497E0F8CC0E94C8196B017C018FEFC816D104E104F10421F018F08CE297E00E
:202FA000EACC92E0C916D104E104F10418F486EF96E0E1CC87EC96E0E2E0CE16D104E1046E
:202FC000F10409F4D8CC9C2D80910501882321F080910601C81641F080912501882339F08D
:202FE00080912601981303C089E996E0C4CC80910401981769F08F3F19F060E00E94840553
:20300000C092040161E08C2D0E94B205109202028091AB020E94870788E896E00E94630E79
:203020006091040170E090E080E04AE00E943A0FB0CE64ED71E0C8010E946E1F7C01892B1C
:2030400009F09AC161EC71E090E080E00E94EF195C0161EC71E090E080E00E94EF196C0122
:2030600061EC71E090E080E00E94EF198C0161EC71E090E080E00E94EF194C0161EC71E0A8
:2030800090E080E00E94EF192C018DEF98E0A114B10409F470CC6EED71E0C5010E946E1F51
:2030A0003C01892B41F063EE71E0C5010E946E1F892B09F070C0C114D10439F0011511057B
:2030C00021F0892811F4452819F084EC98E053CCC8010E94C4194B015C01C6010E94C81971
:2030E000AB01BC0181E0672809F480E0950184010E946D118091AC02882309F43FC0809168
:20310000AB0281113BC00E94E305AB01BC018091A7029091A802A091A902B091AA028A01A9
:203120009B01081B190B2A0B3B0BD901C801B7FD25C080917F0190918001A0918101B091CE
:203140008201840F951FA61FB71F8093A7029093A802A093A902B093AA0288EB99E00E9426
:20316000630E0E94600521E030E0019711F030E020E0C9010E9489100E948F0E80E090E009
:20318000892B09F4B8CB0E947306882309F4B0CB0E940000ADCB8AE998E0C114D10409F411
:2031A000EACB91E00115110509F090E081E08114910409F080E0981302C0452819F088E421
:2031C00098E0D9CBC5010E94C8192B013C01C6010E94C4196D877E878F87988B011511057D
:2031E00031F585E298E0FFEF4F1651046104710411F008F0C0CB242D80910501882321F0A0
:2032000090910601491659F090912501E82E992331F091E030912601321390E0E92E0D85ED
:203220001E852F853889B301A2018E2D61CFC4010E94C419698B7A8B8B8B9C8BC8010E944F
:20324000C8194B015C010FEF401651046104710409F038F41FEF81169104A104B10421F097
:2032600018F082E098E087CB22E0421651046104710478F032E083169104A104B10448F057
:2032800042E0441651046104710431F487E997E072CB89EC97E06FCB52E085169104A1040D
:2032A000B104A1F3481459046A047B0419F485E797E061CB3C862B863A8629861D821E82E2
:2032C0001F82188619821A821B821C829E012B5F3F4FAE01455F5F4F6D857E858F8598895B
:2032E0000E949F0E882309F405CF9E012F5F3F4FAE01475F5F4FB989AA89FB89EC896B2F3D
:203300007A2F8F2F9E2F0E949F0E882309F4F2CE0E940808CD80DE80EF80F8840B851C8549
:203320002C812F932B812F932A812F9329812F932A852F9329852F938C898F939B899F9369
:20334000EA89EF93F989FF93AA24A3942D853E854F855889642D81E00E94670860E082E090
:203360000E94B2050E94AD070E9438110FB6F894DEBF0FBECDBFBECE8EE399E00E94630EE3
:20338000C8010E94820E05CD662777270C94301A1F93FC0199278827BC01E8941191103210
:2033A000E9F3193010F01E30C8F31B3251F01D3249F4689406C00E941B1A610F711D811D90
:2033C000911D119110531A30B0F33EF490958095709561957F4F8F4F9F4F1F91089547E5D3
:2033E00053E00E94F4190895FA01A191B081009719F41097E1F0CD01DC01CD010D9000209E
:2034000011F4C00113C0FB012191222319F02015D9F7F3CFFB012191201519F41E92119609
:2034200006C02223C1F70D900020A1F7D001FA01A193B0830895592F482F372F262F660F75
:20344000771F881F991F660F771F881F991F620F731F841F951F660F771F881F991F0895AC
:20346000B0E0A0E0E6E3FAE10C94D91C5C017B016115710519F0DB018D939C9385010F5F16
:203480001F4FF501D0818D2F90E00E94801B6C01892BB9F5DD32B9F50F5F1F4FD501119629
:2034A000DC91C1E05801F1E0AF1AB10843E050E060E770E0C5010E94891B892B69F56801E1
:2034C00082E0C80ED11C45E050E06BE670E0C6010E94891B892B21F4680197E0C90ED11C57
:2034E000E114F10419F0D701CD92DC9260E070E080E89FEFC111FFC060E070E080E89FE79F
:20350000FAC05801BBCFDB3229F485010E5F1F4FF501D181C0E0C6CF43E050E068E670E015
:20352000C5010E94891B892BE9F0F80110E000E020E030E0A9015F01B0ED8B2E8D0E89E0B5
:203540008815C8F19C2E689491F88C2F8870C2FF16C0811102C00F5F1F4F3196D501DC9142
:20356000C92DE9CFE114F10429F00E5F1F4FF7011183008360E070E080EC9FE7BCC0882307
:2035800011F001501109A5E0B0E00E94C81C9B01AC01220F331F441F551F280D311D411DA0
:2035A000511D283999E93907490799E15907A8F2C6609C2ED2CFAEEF8A1206C0C3FD3CC06A
:2035C0009C2E689493F8C9CFDF7DD534A9F580818D3239F4C061DF011296818162E070E0D5
:2035E00006C0DF018B32C1F3119661E070E080535D01A61AB70A8A30F8F4E0E8CE16ECE0AC
:20360000DE065CF4B601660F771F660F771FC60ED71ECC0CDD1CC80ED11C5D01FFEFAF1A37
:20362000BF0A8C9180538A30A8F1C4FF03C0D194C194D1080C0D1D1DC1FF09C0E114F1049F
:2036400031F081E0A81AB108D701AD92BC92CA01B9010E94A61BC370C33009F490584B01C9
:203660005C0120E030E0A9010E94A11B882309F440C0CFE9D0E017FF05C011950195110994
:20368000C7E8D0E06E01B8E1CB1AD10880E2E82EF12C0FC0D501B1CFFE01259135914591FA
:2036A00054910E191F09C501B4010E94071C4B015C01D501C4010E151F0574F72497F5945C
:2036C000E794CC16DD06A9F78A2F880F8B2F881F8F3F49F020E030E0A901C501B4010E947B
:2036E000A11B811106C082E290E090935A0380935903C501B401CDB7DEB7ECE00C94F51CE2
:2037000091110C94741C803219F089508550C8F70895FB01DC014150504088F08D918134CD
:203720001CF08B350CF4805E659161341CF06B350CF4605E861B611171F3990B0895881B8F
:20374000FCCF0E94E31B08F481E00895E89409C097FB3EF490958095709561957F4F8F4F1A
:203760009F4F9923A9F0F92F96E9BB279395F695879577956795B795F111F8CFFAF4BB0FD9
:2037800011F460FF1BC06F5F7F4F8F4F9F4F16C0882311F096E911C0772321F09EE8872FC9
:2037A000762F05C0662371F096E8862F70E060E02AF09A95660F771F881FDAF7880F969564
:2037C000879597F90895990F0008550FAA0BE0E8FEEF16161706E807F907C0F012161306F9
:2037E000E407F50798F0621B730B840B950B39F40A2661F0232B242B252B21F408950A26B3
:2038000009F4A140A6958FEF811D811D08950E941A1C0C948E1C0E94801C38F00E94871C6B
:2038200020F0952311F00C94771C0C947D1C11240C94C21C0E949F1C70F3959FC1F3950F54
:2038400050E0551F629FF001729FBB27F00DB11D639FAA27F00DB11DAA1F649F6627B00D60
:20386000A11D661F829F2227B00DA11D621F739FB00DA11D621F839FA00D611D221F749FF0
:203880003327A00D611D231F849F600D211D822F762F6A2F11249F5750409AF0F1F08823D3
:2038A0004AF0EE0FFF1FBB1F661F771F881F91505040A9F79E3F510580F00C94771C0C9490
:2038C000C21C5F3FE4F3983ED4F3869577956795B795F795E7959F5FC1F7FE2B880F911D5D
:2038E0009695879597F9089599278827089597F99F6780E870E060E008959FEF80EC089586
:2039000000240A941616170618060906089500240A9412161306140605060895092E03943F
:20392000000C11F4882352F0BB0F40F4BF2B11F460FF04C06F5F7F4F8F4F9F4F089557FD20
:203940009058440F551F59F05F3F71F04795880F97FB991F61F09F3F79F08795089512163A
:2039600013061406551FF2CF4695F1DF08C0161617061806991FF1CF8695710561050894FA
:203980000895E894BB2766277727CB0197F908950E940A1DA59F900DB49F900DA49F800D9E
:2039A000911D112408952F923F924F925F926F927F928F929F92AF92BF92CF92DF92EF92DA
:2039C000FF920F931F93CF93DF93CDB7DEB7CA1BDB0B0FB6F894DEBF0FBECDBF09942A88B4
:2039E000398848885F846E847D848C849B84AA84B984C884DF80EE80FD800C811B81AA81DC
:203A0000B981CE0FD11D0FB6F894DEBF0FBECDBFED010895A29FB001B39FC001A39F700D0B
:203A2000811D1124911DB29F700D811D1124911D08955058BB27AA270E94311D0C948E1C84
:203A40000E94801C38F00E94871C20F039F49F3F19F426F40C947D1C0EF4E095E7FB0C9447
:203A6000771CE92F0E949F1C58F3BA17620773078407950720F079F4A6F50C94C11C0EF481
:203A8000E0950B2EBA2FA02D0B01B90190010C01CA01A0011124FF27591B99F0593F50F4BE
:203AA000503E68F11A16F040A22F232F342F4427585FF3CF469537952795A795F04053959E
:203AC000C9F77EF41F16BA0B620B730B840BBAF09150A1F0FF0FBB1F661F771F881FC2F7C1
:203AE0000EC0BA0F621F731F841F48F4879577956795B795F7959E3F08F0B0CF9395880F2E
:203B000008F09927EE0F9795879508950E949A1D0C948E1C0E94871C58F00E94801C40F06D
:203B200029F45F3F29F00C94771C51110C94C21C0C947D1C0E949F1C68F39923B1F35523D5
:203B400091F3951B550BBB27AA2762177307840738F09F5F5F4F220F331F441FAA1FA9F381
:203B600035D00E2E3AF0E0E832D091505040E695001CCAF72BD0FE2F29D0660F771F881F74
:203B8000BB1F261737074807AB07B0E809F0BB0B802DBF01FF2793585F4F3AF09E3F5105EF
:203BA00078F00C94771C0C94C21C5F3FE4F3983ED4F3869577956795B795F7959F5FC9F721
:203BC000880F911D9695879597F90895E1E0660F771F881FBB1F621773078407BA0720F090
:203BE000621B730B840BBA0BEE1F88F7E09508950E94A71C88F09F5798F0B92F9927B751CD
:203C0000B0F0E1F0660F771F881F991F1AF0BA95C9F714C0B13091F00E94C11CB1E00895CD
:203C20000C94C11C672F782F8827B85F39F0B93FCCF3869577956795B395D9F73EF4909592
:203C40008095709561957F4F8F4F9F4F08950E94E31B08F48FEF08950E94E31B880B990B8F
:203C60000895A1E21A2EAA1BBB1BFD010DC0AA1FBB1FEE1FFF1FA217B307E407F50720F03E
:203C8000A21BB30BE40BF50B661F771F881F991F1A9469F760957095809590959B01AC01B5
:203CA000BD01CF010895052E97FB1EF400940E946A1E57FD07D00E94311E07FC03D04EF410
:203CC0000C946A1E50954095309521953F4F4F4F5F4F089590958095709561957F4F8F4F2F
:203CE0009F4F0895DF93CF931F930F939A9DF02D219FF00D8B9DF00D8A9DE02DF10D039F07
:203D0000F00D029FE00DF11D4E9DE00DF11D5E9DF00D4F9DF00D7F936F93BF92AF925F93AB
:203D20004F93D5010E940A1D8B01AC01D7010E940A1DEB01E80FF91FD6010E94C11E2F9115
:203D40003F91D6010E940A1DC60FD71FE81FF91FAF91BF910E94C11E2F913F910E940A1D9F
:203D6000C60FD71FE81FF91FD6010E940A1DE60FF71F9801BE01CF010F911F91CF91DF9166
:203D800008950E940A1D460F571FC81FD91F08F431960895689401C0E8948F929F92CF93C6
:203DA000DF930E94D81EDF91CF919F908F90089588249924F401E401B0E49F93AA279A15B5
:203DC0008B049C04ED05FE05CF05D007A10798F4AD2FDC2FCF2FFE2FE92D982C892E982F76
:203DE000872F762F652F542F432F322F2227B85031F7BF9127C01B2EBF91BB27220F331FD0
:203E0000441F551F661F771F881F991F881C991CEE1FFF1FCC1FDD1FAA1FBB1F8A149B0406
:203E2000EC05FD05CE05DF05A007B10748F08A189B08EC09FD09CE09DF09A00BB10B21605A
:203E40001A94E1F62EF49401AF01BE01CD01000C0895002E083090F0982F872F762F652FA4
:203E6000542F432F322F22270850F4CF220F331F441F551F661F771F881F991F0A95B2F76C
:203E8000002D089597FD1094002E083098F00850232F342F452F562F672F782F892F912D79
:203EA000F4CF1594979587957795679557954795379527950A95AAF71124002D08952A0D80
:203EC0003B1D4C1D5D1D6E1D7F1D801F911F0895EE0FFF1F0590F491E02D0994FB01DC01DC
:203EE0008D9181341CF08B350CF4805E619161341CF06B350CF4605E861B611189F3990B21
:203F00000895F894FFCF0806080609010B00007042010000001B410000000000000000006A
:203F20000000000000000000000000010A0000F0410200000035820000000000000000008C
:203F4000000000000000000000000000010000000000000000000000000000000000000060
:203F6000000000000000000000000000000000000000000000000000000000000000000041
:203F80000000000000E803000000000000A90609063606F6066706450659060000000052D7
:203FA0000E09067F0E7E0E0D0A006E616E00696E66006F76660050494E4700535441545530
:203FC0005300504C4F54002009004F4646004F4E00535441525450494E00434F4E46494783
:203FE0005552450043414D310043414D3200FFFFFFFFFFFFFFFFFFFFFFFFFFFFFFFFFFFFE2
:20400000FFFFFFFFFFFFFFFFFFFFFFFFFFFFFFFFFFFFFFFFFFFFFFFFFFFFFFFFFFFFFFFFC0
:20402000FFFFFFFFFFFFFFFFFFFFFFFFFFFFFFFFFFFFFFFFFFFFFFFFFFFFFFFFFFFFFFFFA0
:20404000FFFFFFFFFFFFFFFFFFFFFFFFFFFFFFFFFFFFFFFFFFFFFFFFFFFFFFFFFFFFFFFF80
:20406000FFFFFFFFFFFFFFFFFFFFFFFFFFFFFFFFFFFFFFFFFFFFFFFFFFFFFFFFFFFFFFFF60
:207E0000112484B714BE81FFF0D085E08093810082E08093C00088E18093C10086E08093FC
:207E2000C20080E18093C4008EE0C9D0259A86E020E33CEF91E0309385002093840096BBAD
:207E4000B09BFECF1D9AA8958150A9F7CC24DD2488248394B5E0AB2EA1E19A2EF3E0BF2E79
:207E6000A2D0813461F49FD0082FAFD0023811F0013811F484E001C083E08DD089C0823404
:207E800011F484E103C0853419F485E0A6D080C0853579F488D0E82EFF2485D0082F10E0A0
:207EA000102F00270E291F29000F111F8ED068016FC0863521F484E090D080E0DECF84364D
:207EC00009F040C070D06FD0082F6DD080E0C81680E7D80618F4F601B7BEE895C0E0D1E0ED
:207EE00062D089930C17E1F7F0E0CF16F0E7DF0618F0F601B7BEE89568D007B600FCFDCF1A
:207F0000A601A0E0B1E02C9130E011968C91119790E0982F8827822B932B1296FA010C016F
:207F200087BEE89511244E5F5F4FF1E0A038BF0751F7F601A7BEE89507B600FCFDCF97BE85
:207F4000E89526C08437B1F42ED02DD0F82E2BD03CD0F601EF2C8F010F5F1F4F84911BD0B8
:207F6000EA94F801C1F70894C11CD11CFA94CF0CD11C0EC0853739F428D08EE10CD085E9AE
:207F80000AD08FE07ACF813511F488E018D01DD080E101D065CF982F8091C00085FFFCCF0A
:207FA0009093C60008958091C00087FFFCCF8091C00084FD01C0A8958091C6000895E0E68F
:207FC000F0E098E1908380830895EDDF803219F088E0F5DFFFCF84E1DECF1F93182FE3DF47
:207FE0001150E9F7F2DF1F91089580E0E8DFEE27FF270994FFFFFFFFFFFFFFFFFFFF040425
:00000001FF
