:020000040000FA
:100000000C9406020C9449070C9422070C942E02BF
:100010000C942E020C942E020C942E020C942E02A0
:100020000C942E020C942E020C942E020C94C807F1
:100030000C942E020C942E020C942E020C942E0280
:100040000C94D8060C942E020C9496070C9470070E
:100050000C942E020C942E020C942E020C942E0260
:100060000C942E020C942E0220636F64653D0020D8
:1000700069643D00455252004F4B2069643D0020A9
:100080007761746368646F675F73746F70706564C1
:100090003D0020747261636B696E675F72756E6E8E
:1000A000696E673D00206265686176696F72616C98
:1000B0005F72756E6E696E673D002062656861767D
:1000C000696F72616C5F6170706C6965645F687A9A
:1000D0003D0020747261636B696E675F6170706C64
:1000E0006965645F687A3D00206265686176696F62
:1000F00072616C5F70696E3D440020747261636B65
:10010000696E675F70696E3D440020626568617664
:10011000696F72616C5F72756E6E696E673D00200B
:10012000747261636B696E675F72756E6E696E671C
:100130003D00206265686176696F72616C5F656E13
:1001400061626C65643D0020747261636B696E6707
:100150005F656E61626C65643D0020776174636801
:10016000646F675F6D733D00207761746368646FCF
:10017000675F73746F707065643D002076616C69B1
:10018000643D002065646765733D002070696E3DC5
:100190004400206B696E643D00206163746976657C
:1001A0003D004241445F434F4D4D414E44004E4F50
:1001B000545F434F4E4649475552454400554E4BB8
:1001C0004E4F574E5F4649454C44004241445F56AE
:1001D000414C554500554E4B4E4F574E5F46494595
:1001E0004C4400494E56414C49445F50494E0049E9
:1001F0004E56414C49445F50494E004241445F567F
:10020000414C5545004241445F56414C5545004ED6
:100210004F545F434F4E4649475552454400424173
:10022000445F56414C5545004241445F56414C5550
:100230004500554E4B4E4F574E5F4649454C440086
:100240004E4F545F434F4E46494755524544005523
:100250004E4B4E4F574E5F4649454C440054494D16
:1002600045525F434F4E464C494354004241445F20
:1002700056414C554500494E56414C49445F504902
:100280004E004241445F56414C554500494E56414F
:100290004C49445F5741544348444F4700554E4BE7
:1002A0004E4F574E5F4649454C4400554E4B4E4FBE
:1002B000574E5F4649454C44002070726F746F631F
:1002C0006F6C3D33206669726D776172653D636561
:1002D00070687672325F756E6F5F322070696E7310
:1002E0003D44322C44332C44342C44352C44362C9D
:1002F00044372C44382C44392C4431302C4431318F
:100300002C4431322C44313320696E7075745F7027
:10031000696E733D44322C4433206D696E5F687A98
:100320003D302E31206D61785F687A3D3130302E5E
:1003300030207761746368646F675F6D696E5F6DAD
:10034000733D353030207761746368646F675F6D2B
:1003500061785F6D733D313030303000554E4B4E1B
:100360004F574E5F4649454C44005245504C595FEB
:10037000544F4F5F4C4F4E47004D495353494E47E2
:100380005F4649454C44004455504C49434154450F
:100390005F4649454C44004241445F56414C5545F7
:1003A000004241445F56414C5545004C494E455F23
:1003B000544F4F5F4C4F4E47000000000024002771
:1003C000002A0000000000250028002B000404047F
:1003D00004040404040202020202020303030303EE
:1003E00003010204081020408001020408102001CB
:1003F00002040810200000000800020100000304AD
:1004000007000000000000000000BC1011241FBE07
:10041000CFEFD8E0DEBFCDBF25E0AAE5B2E001C056
:100420001D92A835B207E1F712E0A0E0B1E0ECEED2
:10043000F9E202C005900D92AA35B107D9F712E092
:10044000C6E0D2E004C02197FE010E94CB14C53063
:10045000D107C9F70E9487090C94F4140C9400008A
:1004600090E0FC01EB50FC4F2491FC01EF51FC4F5C
:100470003491FC01E353FC4FE491EE23C9F02223B5
:1004800039F0233001F1A8F4213019F1223029F19B
:10049000F0E0EE0FFF1FED53FC4FA591B4918FB725
:1004A000F894EC91611126C030953E233C938FBFA8
:1004B00008952730A9F02830C9F0243049F78091F9
:1004C00080008F7D03C0809180008F7780938000B3
:1004D000DFCF84B58F7784BDDBCF84B58F7DFBCF35
:1004E0008091B0008F778093B000D2CF8091B00020
:1004F0008F7DF9CF3E2BDACFCF93DF9390E0FC01D5
:10050000EF51FC4F249183539C4FFC01849188232D
:10051000D1F090E0880F991FFC01E754FC4FA591A2
:10052000B491FC01ED53FC4FC591D49161110EC003
:100530009FB7F8948C91E22FE0958E238C932881BD
:10054000E223E8839FBFDF91CF9108958FB7F8949E
:10055000EC91E22BEC938FBFF6CF2FB7F89460911C
:10056000B3047091B4048091B5049091B6042FBF88
:1005700008950895AF92BF92CF92DF92EF92FF92CB
:100580000F931F93CF93DF936C017B018B01040FBB
:10059000151FEB015E01AE18BF08C017D10759F057
:1005A0006991D601ED91FC910190F081E02DC60199
:1005B0000995892B79F7C501DF91CF911F910F9193
:1005C000FF90EF90DF90CF90BF90AF900895FC0127
:1005D000538D448D252F30E0842F90E0821B930BA8
:1005E000541710F0CF96089501970895FC01918D4E
:1005F000828D981761F0A28DAE0FBF2FB11D5D9651
:100600008C91928D9F5F9F73928F90E008958FEFF2
:100610009FEF0895FC01918D828D981731F0828DA6
:10062000E80FF11D858D90E008958FEF9FEF0895FD
:10063000FC01918D228D892F90E0805C9F4F821B61
:1006400091098F739927089587EB94E00E9418030E
:1006500021E0892B09F420E0822F089580E090E0CA
:10066000892B29F00E94240381110C940000089525
:10067000FC01A48DA80FB92FB11DA35ABF4F2C9117
:10068000848D90E001968F739927848FA689B7890E
:100690002C93A089B1898C91837080648C93938D05
:1006A000848D981306C00288F389E02D80818F7DA8
:1006B00080830895EF92FF920F931F93CF93DF9360
:1006C000EC0181E0888F9B8D8C8D98131AC0E8898E
:1006D000F989808185FF15C09FB7F894EE89FF895D
:1006E0006083E889F98980818370806480839FBFFB
:1006F00081E090E0DF91CF911F910F91FF90EF90FB
:100700000895F62E0B8D10E00F5F1F4F0F7311270A
:10071000E02E8C8D8E110CC00FB607FCFACFE88945
:10072000F989808185FFF5CFCE010E943803F1CF92
:10073000EB8DEC0FFD2FF11DE35AFF4FF0829FB7B9
:10074000F8940B8FEA89FB8980818062CFCF0F9369
:100750001F93CF93DF938C01D0E0C0E0F801EC0F42
:10076000FD1F6491662341F087EB94E00E945A03D9
:10077000892B11F02196F2CFCE01DF91CF911F91FD
:100780000F910895CF93DF93EC01888D8823B9F002
:10079000AA89BB89E889F9898C9185FD03C080818C
:1007A00086FD0DC00FB607FCF7CF8C9185FFF2CF09
:1007B000808185FFEDCFCE010E943803E9CFDF9124
:1007C000CF910895F89494E1899FF0011124E9589C
:1007D000FD4F1186128678948081882319F060E09D
:1007E0000C943002089580915E0290915F02A09176
:1007F0006002B09161028F3F9F4FAF4FBF4F99F0A2
:1008000080915E0290915F02A0916002B0916102BE
:100810000196A11DB11D80935E0290935F02A0938B
:100820006002B09361020895FC0101900020E9F795
:100830003197AF01481B590BBC0187EB94E00C9436
:10084000BA028F929F92AF92BF920F931F93CF9352
:10085000DF93CDB7DEB7A1970FB6F894DEBF0FBE1A
:10086000CDBF19A2423008F44AE08E010F5D1F4F40
:10087000842E912CB12CA12CA50194010E941C1254
:10088000E62FB901CA01EA30F4F4E05DD801EE9335
:100890008D01232B242B252B79F790E080E01097F6
:1008A00019F0CD010E941404A1960FB6F894DEBF92
:1008B0000FBECDBFDF91CF911F910F91BF90AF9031
:1008C0009F908F900895E95CE1CFCF93DF93EC0187
:1008D00088E790E00E94A703209729F0CE01DF91DE
:1008E000CF910C941404DF91CF9108950F931F932F
:1008F000CF93DF93EC018B0184E790E00E94A70384
:10090000209739F08FE690E00E94A703CE010E9465
:10091000140488E690E00E94A703C8010E94A70380
:1009200086E391E0DF91CF911F910F910C94140415
:10093000BC01990F880B990B4AE00C942104CF93CA
:10094000DF930E94650485EA90E00E94A703C7E751
:10095000D2E0898590E00E94980482E990E00E94AC
:10096000A7038D8D90E00E9498048FE790E00E948D
:10097000A7038091A00290E00E94980486E391E092
:10098000DF91CF910C9414046F927F928F929F927B
:10099000AF92BF92CF92DF92EF92FF920F931F938D
:1009A000CF93DF930E9465048BE791E00E94A70339
:1009B0008091A90290E00E94980488E691E00E944C
:1009C000A7038091A00290E00E9498048AE591E03C
:1009D0000E94A7038091A902882309F46DC0609149
:1009E000A1027091A2028091A3029091A4024AE018
:1009F0000E942104C7E7D2E010E000E082E391E02A
:100A000024E1722E0E94A7038B8590E00E94980437
:100A1000F02E8AE091E0002311F08FE191E00E9436
:100A2000A703709EF001719EF00D1124E958FD4F4F
:100A3000818590E00E9498048B85882339F188EEA7
:100A400090E0FF2011F08AEF90E00E94A7036881F8
:100A500070E090E080E04AE00E9421048AEB90E0A0
:100A6000FF2011F082ED90E00E94A703C888D9888A
:100A7000EA88FB88A7019601C701B6010E94C61447
:100A80008823F1F089E391E00E94140401301105FC
:100A900009F0AEC086E391E0DF91CF911F910F91F5
:100AA000FF90EF90DF90CF90BF90AF909F908F908E
:100AB0007F906F900C94140460E070E0CB0197CFAE
:100AC00046015701E894B7F82FEF3FEF4FE75FE794
:100AD000C501B4010E94C61481110DC02FEF3FEF74
:100AE0004FE75FE7C501B4010E94FC1218161CF421
:100AF0008DE391E0C9CF2FEF3FEF4FE75FE4C701F0
:100B0000B6010E94541418161CF481E491E0BCCF85
:100B10002FEF3FEF4FE75FECC701B6010E94FC12D9
:100B200087FDF3CF20E030E0A901C701B6010E94A4
:100B3000FC1287FF09C06DE287EB94E00E945A0324
:100B4000F7FAF094F7F8F09499E0B92E60E070E0CD
:100B500080E09FE320E030E040E251E40E94011396
:100B6000BA94B110F7CFA70196010E9490126B01C1
:100B70007C010E9473134B015C010E94A2139B0134
:100B8000AC01C701B6010E948F126B017C014AE0E3
:100B9000C501B4010E9421046EE287EB94E00E943B
:100BA0005A038AE0682E6A94662009F46FCF20E029
:100BB00030E040E251E4C701B6010E9459144B01F4
:100BC0005C010E9473136B01F12CE12C4AE0C70118
:100BD000B6010E942104C701B6010E94A2139B0125
:100BE000AC01C501B4010E948F126B017C01DBCF07
:100BF000649687E491E001E010E004CF7F928F9249
:100C00009F92AF92BF92CF92DF92EF92FF920F939B
:100C10001F93CF93DF93E62E842E752E922E6C01B8
:100C2000D0E0DE15C9F0F601A190B1906F01082D5A
:100C3000172DF12CC0E0F801619171918F01C50170
:100C40000E94DC14892B09F4C1E0F3949F10F3CFC8
:100C5000CC2319F0DF5FE5CFC1E08C2FDF91CF917E
:100C60001F910F91FF90EF90DF90CF90BF90AF90CA
:100C70009F908F907F9008958F929F92AF92BF9296
:100C8000CF92DF92EF92FF920F931F93CF93DF9358
:100C90006C015B01D42F49018C01C0E0CD1701F13B
:100CA0007801EC18FD08B401F801819191918F0150
:100CB0000E94DC14892B91F4EA0CFB1CF701808163
:100CC0009181DF91CF911F910F91FF90EF90DF9075
:100CD000CF90BF90AF909F908F900895CF5FDECF61
:100CE00090E080E0EECF80919F02882309F441C01C
:100CF00065E471E083E692E00E94DC14892B19F42C
:100D000080E00E94E20360E571E083E692E00E94E9
:100D1000DC14892B19F481E00E94E20369E571E09B
:100D200083E692E00E94DC14892B29F48091620210
:100D300060E00E94300265E671E083E692E00E9486
:100D4000DC140097A1F420916202223099F0809186
:100D50006202833061F4E99881E090E0880F991F86
:100D6000FC01E050FF4F89EB92E091838083109269
:100D70009F020895E898F2CF0F931F930E94AD024F
:100D800000915A0210915B0220915C0230915D0249
:100D9000601B710B820B930B603D774081059105C1
:100DA00020F01F910F910C9473061F910F910895DD
:100DB0001F920F920FB60F9211242F933F938F9390
:100DC0009F93AF93BF938091B3049091B404A0918B
:100DD000B504B091B6043091B20423E0230F2D374F
:100DE00058F50196A11DB11D2093B2048093B30460
:100DF0009093B404A093B504B093B6048091AE046C
:100E00009091AF04A091B004B091B1040196A11DDE
:100E1000B11D8093AE049093AF04A093B004B0933F
:100E2000B104BF91AF919F918F913F912F910F90FE
:100E30000FBE0F901F90189526E8230F0296A11D54
:100E4000B11DD2CF1F920F920FB60F9211242F9384
:100E50003F934F935F936F937F938F939F93AF9342
:100E6000BF93EF93FF93E0910201F0910301099585
:100E7000FF91EF91BF91AF919F918F917F916F9172
:100E80005F914F913F912F910F900FBE0F901F9048
:100E900018951F920F920FB60F9211242F933F9324
:100EA0004F935F936F937F938F939F93AF93BF9372
:100EB000EF93FF93E0910001F09101010995FF91FB
:100EC000EF91BF91AF919F918F917F916F915F91C2
:100ED0004F913F912F910F900FBE0F901F9018953B
:100EE0001F920F920FB60F9211242F933F934F939F
:100EF0005F936F937F938F939F93AF93BF93EF9382
:100F0000FF9387EB94E00E943803FF91EF91BF912C
:100F1000AF919F918F917F916F915F914F913F9191
:100F20002F910F900FBE0F901F9018951F920F9248
:100F30000FB60F9211242F938F939F93EF93FF93EC
:100F4000E091C704F091C8048081E091CD04F09154
:100F5000CE0482FD1BC090818091D0048F5F8F737F
:100F60002091D104821741F0E091D004F0E0E954DF
:100F7000FB4F958F8093D004FF91EF919F918F91BC
:100F80002F910F900FBE0F901F9018958081F4CF76
:100F90001F920F920FB60F921124AF92BF92CF9271
:100FA000DF92EF92FF920F931F932F933F934F93F4
:100FB0005F936F937F938F939F93AF93BF93CF93E1
:100FC000DF93EF93FF93C7E7D2E010E000E034E156
:100FD000B32EB09EF001B19EF00D1124E958FD4FE3
:100FE00081858823A1F185819681A781B08549817A
:100FF0005A816B817C81840F951FA61FB71F858343
:101000009683A783B087C580D680E780F084C70128
:10101000B6016095709580959095662797FD6395CC
:101020007727882799272285261789F06287A88045
:101030008A2D0E943002F7FC0AC080919F0288230B
:1010400031F080916202A81202C00E94F3036496FC
:1010500001301105D9F4FF91EF91DF91CF91BF914C
:10106000AF919F918F917F916F915F914F913F9140
:101070002F911F910F91FF90EF90DF90CF90BF9035
:10108000AF900F900FBE0F901F90189501E010E0E9
:10109000A0CFCF92DF92EF92FF920F931F93CF9347
:1010A000DF93EA010097E1F0FC0120812223C1F0E7
:1010B00030E020E09AE0DF01819140ED480F4A30B6
:1010C00088F4929FD001939FB00D11249D0120536D
:1010D0003109280F311D87FD3A952536310558F322
:1010E00020E04BC08E32E1F711965C91119780EDB4
:1010F000850F8A30A8F712968C918111F1CF4AE0C2
:10110000429FC001439F900D1124850F911D57FDF3
:101110009A959C0121533109283E334008F78B01F1
:10112000C097BC0190E080E00E94A2136B017C019B
:1011300020E030E040E251E40E940113F8016083B6
:101140007183828393832CEA35EC47E257E4C7012D
:10115000B6010E94591420E030E040E05FE30E94B5
:1011600090120E947313688379838A839B8321E0A2
:10117000672B682B692B09F4B3CF822FDF91CF91B6
:101180001F910F91FF90EF90DF90CF9008950F93F4
:101190001F93CF93F894082F10E094E1899FF001FA
:1011A0001124E958FD4F158216821782108681E0BE
:1011B0008287C08161E08C2F0E94300280919F0263
:1011C000882331F080916202C81302C00E94F303A9
:1011D00084E1809FF001819FF00D1124E958FD4FBB
:1011E00081E081877894CF911F910F910895FC0140
:1011F000892B09F44CC08081843409F048C0DF0198
:101200000D900020E9F79D01215031092E1B3F0B65
:10121000C90102970297D8F5418180ED840F8A3089
:10122000B0F52330310521F4828180538A3078F57E
:10123000042E000C550B4053510981E090E02330FF
:10124000310511F48AE090E0489FD001499FB00D2C
:10125000589FB00D112490E080E02330310529F42F
:101260008281082E000C990BC0978A0F9B1FAC013E
:10127000425051094C30510550F42330310519F4D6
:101280008A30910520F0FB01808381E0089580E0A1
:101290000895CF92DF92EF92FF92F894C0905E0291
:1012A000D0905F02E0906002F090610278940E941A
:1012B000650489E991E00E94A70380919F0290E074
:1012C0000E94980482E991E00E94A70383E692E0DD
:1012D0000E9414048BE891E00E94A70360916202CF
:1012E00070E090E080E04AE00E94210483E891E011
:1012F0000E94A7034AE0C701B6010E94210486E3C9
:1013000091E0FF90EF90DF90CF900C941404CF9376
:10131000DF93CDB7DEB7C657D1090FB6F894DEBF5D
:101320000FBECDBF789484B5826084BD84B58160E2
:1013300084BD85B5826085BD85B5816085BD8091A0
:101340006E00816080936E00109281008091810018
:101350008260809381008091810081608093810010
:10136000809180008160809380008091B1008460D2
:101370008093B1008091B00081608093B000809133
:101380007A00846080937A0080917A0082608093F2
:101390007A0080917A00816080937A0080917A004F
:1013A000806880937A001092C100E091C704F091A8
:1013B000C80482E08083E091C304F091C4041082E9
:1013C000E091C504F091C60480E180831092CF04BF
:1013D000E091CB04F091CC0486E08083E091C904D5
:1013E000F091CA04808180618083E091C904F0910A
:1013F000CA04808188608083E091C904F091CA04A6
:10140000808180688083E091C904F091CA04808162
:101410008F7D808312E061E0812F0E947C0260E07A
:10142000812F0E9430021F5F1E30A9F710928000AA
:1014300010928100109285001092840087EC90E059
:1014400090938900809388008AE08093810082E0F5
:1014500080936F000E94AD026093A5027093A60274
:101460008093A7029093A80221E630E02C0F3D1F45
:101470002E5F3F4FE7963FAF2EAFE79787EB94E0A5
:101480000E941803892B09F4C0C587EB94E00E94E1
:10149000F6029091AD048D3049F4992319F081E062
:1014A0008093AC0481E08093AD04E8CF992329F0C8
:1014B0008A3019F091E09093AC041092AD049091B1
:1014C000AC048A3009F083C5992369F06BEA73E0B4
:1014D00090E080E00E9476041092AC041092AB047D
:1014E0001092AA04CBCFE091AA04F091AB04E65588
:1014F000FD4F10826EEC71E08AEA92E00E94DD11ED
:101500008C01892B59F36EEC71E090E080E00E9431
:10151000DD116C01CE0101965C01FE01B1963F0127
:10152000512C382E4B2CC114D10409F446C0F0E1E3
:101530005F1207C061EA73E090E080E00E947604E9
:10154000CDCF6DE370E0C6010E94D1147C010097FD
:1015500039F0C816D90621F0FC018181811103C040
:1015600067E973E0E9CF10829E012F5D3F4F49018B
:10157000212C521471F0B601F401819191914F0127
:101580000E94DC14892B19F467E873E0D5CF23940B
:10159000F0CFF301C192D1923F01FFEFEF1AFF0AA2
:1015A000F501E192F1925F0153946EEC71E090E0ED
:1015B00080E00E94DD116C01B6CF20ED31E0452DB9
:1015C000632D742DCE0181960E943C065C0169E773
:1015D00073E0009709F4B0CFFC0101900020E9F717
:1015E0003197E81BF90B6AE673E0E13FF10508F07B
:1015F000A3CF63ED71E0C8010E94DC14892B51F583
:1016000080ED91E023969FAF8EAF239721E0AE014E
:101610004F5B5F4F652DCE0181960E94FE056CE504
:1016200073E0882309F42DC10E94AD026093A502E6
:101630007093A6028093A7029093A802C5010E940E
:10164000650489EB92E00E94A70386E391E00E9483
:10165000140444CF6AEF71E0C8010E94DC14892BA6
:1016600039F068ED71E0C8010E94DC14892B51F556
:1016700080ED91E023969FAF8EAF239721E0AE01DE
:101680004F5B5F4F652DCE0181960E94FE056BEA90
:1016900072E0882309F4F5C00E94AD026093A502B0
:1016A0007093A6028093A7029093A8026AEF71E05C
:1016B000C8010E94DC14892B09F034C5C5010E94C1
:1016C000C4040CCF6DED71E0C8010E94DC14892BBD
:1016D00009F0EAC180E1E4E0F1E0DE01AF5BBF4F79
:1016E00001900D928A95E1F728E0AE014F5B5F4FC4
:1016F000652DCE0181960E94FE05882309F4BFC0A6
:1017000080919F028111BBC027EE31E0452D632DF2
:10171000742DCE0181960E943C06009751F0FC0189
:101720002081222331F02191222331F020532A30CD
:10173000D0F36CE872E0A5C04AE050E070E060E0F1
:101740000E94E9103B014C01DC01CB01845F914018
:10175000A109B1098D319542A105B10550F7A496B3
:101760001FAEA497A5961FAEA5976D961CAE1DAE95
:101770001EAE1FAE6D97A1961CAE1DAE1EAE1FAE67
:10178000A19765961CAE1DAE1EAE1FAE65976996FD
:101790001CAE1DAE1EAE1FAE6997A2961FAEA297DD
:1017A000A3961FAEA3979E012F5A3F4FE3963FAFDC
:1017B0002EAFE397CE01875A9F4FE1969FAF8EAF32
:1017C000E197FE01EF59FF4FAD96FFAFEEAFAD973A
:1017D0002E5E3F4F1901C901A9963FAF2EAFA997C1
:1017E000E596FFAFEEAFE5972A503109AB963FAFD4
:1017F0002EAFAB974297A7969FAF8EAFA797412C7E
:101800005EE9C52E51E0D52E2DEA31E060ECE62EE2
:1018100061E0F62E452DBE016F5F7F4FCE018196B0
:101820000E943C068C019601452DBE016F5F7F4FE3
:10183000CE0181960E943C06AF969FAF8EAFAF97C8
:101840009701452DBE016F5F7F4FCE0181960E94AB
:101850003C066C010115110579F06AE272E0C801DD
:101860000E94DC147C0163EF71E0C8010E94DC146B
:10187000EF28B1F00097A1F062E872E002C06DE9D4
:1018800072E0C5015BCE4424439424E7C22E21E0DC
:10189000D22E21E831E042E9E42E41E0F42EBACF25
:1018A00021E0009709F020E0E596EEADFFADE59769
:1018B0002193E596FFAFEEAFE597892B09F0E8C0DD
:1018C000A9966EAD7FADA997AF968EAD9FADAF9740
:1018D0000E94F708811103C066E772E0D2CFAB9691
:1018E0004EAD5FADAB97A7966EAD7FADA797C60126
:1018F0000E944908882381F3A7968EAD9FADA797D4
:101900000496A7969FAF8EAFA797AB96EEADFFADAF
:10191000AB973496AB96FFAFEEAFAB97A9962EADD3
:101920003FADA9972F5F3F4FA9963FAF2EAFA99725
:1019300031E04312A8CFA2968FADA297882381F001
:10194000A3969FADA397992359F0A4962FADA49782
:10195000A5969FADA5976DE572E0291709F491CF83
:10196000E0908002E110E82EF0909402FF2019F040
:10197000A396FFACA39780E00E94E20381E00E945F
:10198000E2030E94730607E712E0AD96EEADFFADED
:10199000AD97C190AD96FFAFEEAFAD97F801C3869E
:1019A000F101D080F801D082E196EEADFFADE19774
:1019B0006191719181919191E196FFAFEEAFE197C5
:1019C000F8016183728383839483E396EEADFFAD68
:1019D000E3972191319141915191E396FFAFEEAFA1
:1019E000E397F80124873587468757870E94A2131B
:1019F00020E030E44CE156E40E94591420E030E04D
:101A000040E85FE20E945914F801608B718B828B71
:101A1000938BCC2049F061E08D2D0E947C0260E028
:101A2000F10180810E9430020C5E1F4FFFEF2F1AE0
:101A30003F0AE7962EAD3FADE797AD968EAD9FADD1
:101A4000AD972817390709F0A0CF6092A1027092D4
:101A5000A2028092A3029092A40281E08093A90244
:101A60001092A0020E94AD026093A5027093A6029C
:101A70008093A7029093A802EE2019F080E00E94C4
:101A8000C708FF2009F41ACE81E00E94C70816CECD
:101A9000AF962EAD3FADAF97232B19F4CD2809F4A7
:101AA0002BCF6CE672E0EDCE65EF71E0C8010E94CD
:101AB000DC14892B39F061E072E0C8010E94DC146B
:101AC000892BC9F580ED91E023969FAF8EAF2397C8
:101AD00021E0AE014F5B5F4F652DCE0181960E94E4
:101AE000FE056FE472E0882309F4CBCE8091630297
:101AF00060E472E0882309F4C4CE0E94AD026093D2
:101B0000A5027093A6028093A7029093A80261E0B9
:101B100072E0C8010E94DC14892B31F40E94730624
:101B2000C5010E944909DACC80919F028823C1F344
:101B30000E94BC06F5CF6BE072E0C8010E94DC1485
:101B4000892B09F066C18AE0E4E1F1E0DE01AF5BD8
:101B5000BF4F01900D928A95E1F725E0AE014F5BF2
:101B60005F4F652DCE0181960E94FE0562E372E013
:101B7000882309F486CE26E132E0452D632D742DAD
:101B8000CE0181960E943C068C012DE731E0452D67
:101B9000632D742DCE0181960E943C066C012BE1D1
:101BA00032E0452D632D742DCE0181960E943C06B6
:101BB0007C012BE931E0452D632D742DCE018196FA
:101BC0000E943C064C01A2961FAEA297011511057A
:101BD00009F445C0BE016F597F4FC6010E94F70846
:101BE0008823E9F1E114F104D1F167E272E0C70161
:101BF0000E94DC14892B99F580919F0281112FC0DE
:101C00008091800281112BC080919402811127C0A4
:101C100065E471E0C8010E94DC147C01892B11F598
:101C20006D961CAE1DAE1EAE1FAE6D9765961CAEBA
:101C30001DAE1EAE1FAE65979FEFE916F90609F4BB
:101C400020C2AE014F5A5F4FBE01675A7F4FC40199
:101C50000E94490881112CC26EE172E012CE68E246
:101C600072E00FCE60E571E0C8010E94DC14892BA0
:101C700021F4EE24E394F12CD3CFEE24EA94FE2C4D
:101C8000CFCF6D962CAD3DAD4EAD5FAD6D976485FC
:101C90007585868597850E94FC1265E072E081114A
:101CA000F0CD65E671E0C8010E94DC14A296DFACBD
:101CB000A297892B39F48EEF8D0D6FEE71E0823093
:101CC00008F0DFCD80918202882341F08091770275
:101CD0008D1104C0E114F10409F065C080919602F1
:101CE000882349F080918B028D1105C0E1E0EE164A
:101CF000F10409F058C043E150E0B80183E692E0F6
:101D00000E94E51410927602D0926202F89410922A
:101D10005E0210925F02109260021092610281E0F6
:101D200080939F0278940E94AD0260935A02709350
:101D30005B0280935C0290935D0261E0FFEFEF161F
:101D4000FF0649F469E571E0C8010E94DC1461E016
:101D5000892B09F060E0A2968FADA2970E947C02C9
:101D60002FEFE216F20639F469E571E0C8010E942E
:101D7000DC14892BD9F460E0A2968FADA2970E9463
:101D800030023FEFE316F30689F08E2D0E94C7085C
:101D90000E94AD026093A5027093A6028093A702F1
:101DA0009093A802BDCE63EE71E06BCD69E571E062
:101DB000C8010E94DC14892B59F4F89461E0A296C2
:101DC0008FADA2970E9430020E94F3037894E0CF77
:101DD000A2968FADA297823069F483EF93E090933F
:101DE0000101809300018091690083608093690004
:101DF000E89ACECF833061F683EF93E090930301AE
:101E000080930201809169008C6080936900E99A57
:101E1000BFCF6CE272E0C8010E94DC14892B09F08C
:101E200053C086E0EEE1F1E0DE01AF5BBF4F019011
:101E30000D928A95E1F723E0AE014F5B5F4F652D70
:101E4000CE0181960E94FE0565ED71E0882309F4BC
:101E500018CD20E332E0452D632D742DCE018196FF
:101E60000E943C068C0124E432E0452D632D742D44
:101E7000CE0181960E943C067C010115110509F1F5
:101E8000892BF9F06AE272E0C8010E94DC146C014F
:101E9000892B39F063EF71E0C8010E94DC14892BB3
:101EA00081F46AE272E0C7010E94DC14892B09F414
:101EB00018C163EF71E0C7010E94DC14892B09F49B
:101EC00013C16BEC71E0DDCC66E572E0C8010E94E5
:101ED000DC14892B09F078C086E0EEE1F1E0DE0148
:101EE000AF5BBF4F01900D928A95E1F723E0AE0101
:101EF0004F5B5F4F652DCE0181960E94FE056DEB15
:101F000071E0882309F4BDCC20E332E0452D632D38
:101F1000742DCE0181960E943C068C0124E432E0AF
:101F2000452D632D742DCE0181960E943C067C01C7
:101F30008091A902882309F444C08091A0028111F4
:101F400040C080919F0281113CC001151105C9F16B
:101F5000E114F104B1F16AE272E0C8010E94DC14FC
:101F60006C01892B39F063EF71E0C8010E94DC1429
:101F7000892B39F56AE272E0C7010E94DC14892BD3
:101F800009F4D4C063EF71E0C7010E94DC14892B0F
:101F9000C1F463EF71E0C8010E94DC148C01892B4D
:101FA00021F480918202882361F063EF71E0C70120
:101FB0000E94DC14892B09F0DCC08091960281110B
:101FC000B9C06EEA71E05DCC62EA71E05ACC911161
:101FD00055CA90EE980F9F3540F42091AA04309195
:101FE000AB042F3F91E0390720F081E08093AC04EF
:101FF00045CAA9014F5F5F4F5093AB044093AA04B9
:1020000026553D4FF901808339CA80919F02811185
:102010000E94BC068091A902882331F10E94AD0282
:102020000091A5021091A6022091A7023091A8026A
:10203000601B710B820B930B0091A1021091A20205
:102040002091A3023091A4026017710782079307C1
:1020500058F080E00E94E20381E00E94E2030E94C7
:10206000730681E08093A00280E090E0892B09F460
:1020700005CA0E942403882309F400CA0E940000B4
:10208000FDC9892809F0E8CD69E571E0C8010E9421
:10209000DC146C0165E671E0C8010E94DC14CD28F7
:1020A00009F4FFCD6BEF71E0892B09F4FACDE9CB90
:1020B0008091A902882391F084E18E9DF0018F9D8B
:1020C000F00D1124E958FD4F8385882339F0908164
:1020D000A2968FADA297981709F4D3CD6FE072E066
:1020E000D0CBCD2809F4EDCE63EF71E0C8010E949A
:1020F000DC14892B19F480E00E94E20363EF71E0A5
:10210000C7010E94DC14892B19F481E00E94E203CC
:102110000E94AD026093A5027093A6028093A7026D
:102120009093A802C5010E949F04D8C9CD2809F444
:1021300048CF2FCF012B89F480918202882331F080
:1021400080918002811102C00E94C70863EF71E094
:10215000C7010E94DC14892BD9F68091960288234E
:10216000B9F2809194028111D3CF81E00E94C70817
:10217000CFCF012B09F3CCCFE7EBF4E0138212822F
:1021800088EE93E0A0E0B0E084839583A683B783D4
:1021900088E291E09183808385EC90E09587848745
:1021A00084EC90E09787868780EC90E0918B808B21
:1021B00081EC90E0938B828B82EC90E0958B848B0A
:1021C00086EC90E0978B868B118E128E138E148E78
:1021D0000895B0E0A0E0EFEEF0E10C944A125C014B
:1021E0006B017A016115710519F0FB019183808300
:1021F000E114F10449F0C7010297839728F060E0E9
:1022000070E0CB019CC05E01E5012196F5011081D3
:10221000812F90E00E94D411892BA9F71D3209F07B
:1022200056C02196F501118101E0E114F10409F491
:10223000AEC0F0E1EF16F10409F08EC0103341F4A6
:1022400088818F7D883509F083C0198122960260CC
:10225000E0E1EE2EF12C88248A94982CA82CFFE043
:10226000BF2E20E060E070E0CB0127010F2C000CB6
:1022700066087708FE0150ED352E310E39E0331532
:1022800038F43FEB310F3A31A0F549EC342E310EE2
:102290003E141F04BCF52F3FB9F086169706A8061A
:1022A000B90670F1A30192010E940C12232D30E0B7
:1022B00050E040E0620F731F841F951F6217730781
:1022C00084079507E8F021E021961081D3CF1B32D7
:1022D00021F4E5012296F501118100E0A6CF78E016
:1022E000E72EF12C88248A94982CA82C6FE1B62E26
:1022F000B8CF3FE9310F3A3128F439EA332EC7CF4E
:102300002FEFE2CFC114D10431F02223E9F021975D
:10231000F601D183C08300FF07C09095809570952A
:1023200061957F4F8F4F9F4F2F3F49F482E290E09E
:1023300090935705809356056FEF7FEFCB01CDB794
:10234000DEB7E1E10C94661201FFE5CF2297E0CF02
:1023500010E3E114F10419F23AE0E316F104E9F0B4
:1023600080E1E816F10409F473CFE8E0EE16F10419
:1023700009F4B8CF6FEF7FEFCB0197010F2C000C62
:10238000440B550B0E941C1249015A016ACF1033AD
:1023900009F456CF9AE0E92EF12C89E9882E982C81
:1023A000A82C89E1B82E5DCF91110C9409128032CE
:1023B00019F089508550C8F7089544E555E00E940A
:1023C000E2110895FA01A191B081009719F41097D4
:1023D000E1F0CD01DC01CD010D90002011F4C00130
:1023E00013C0FB012191222319F02015D9F7F3CF57
:1023F000FB012191201519F41E92119606C022238B
:10240000C1F70D900020A1F7D001FA01A193B0838C
:102410000895992788270895DB018F939F930E9441
:102420003E12BF91AF91A29F800D911DA39F900D71
:10243000B29F900D11240895A1E21A2EAA1BBB1B76
:10244000FD010DC0AA1FBB1FEE1FFF1FA217B30780
:10245000E407F50720F0A21BB30BE40BF50B661F96
:10246000771F881F991F1A9469F76095709580955A
:1024700090959B01AC01BD01CF0108950E9480128F
:10248000A59F900DB49F900DA49F800D911D1124C8
:1024900008952F923F924F925F926F927F928F9208
:1024A0009F92AF92BF92CF92DF92EF92FF920F93E3
:1024B0001F93CF93DF93CDB7DEB7CA1BDB0B0FB6ED
:1024C000F894DEBF0FBECDBF09942A8839884888AA
:1024D0005F846E847D848C849B84AA84B984C88440
:1024E000DF80EE80FD800C811B81AA81B981CE0F37
:1024F000D11D0FB6F894DEBF0FBECDBFED0108951C
:10250000A29FB001B39FC001A39F700D811D112434
:10251000911DB29F700D811D1124911D0895505879
:10252000BB27AA270E94A7120C941A140E940C140D
:1025300038F00E94131420F039F49F3F19F426F468
:102540000C9409140EF4E095E7FB0C940314E92FA6
:102550000E942B1458F3BA17620773078407950774
:1025600020F079F4A6F50C944D140EF4E0950B2EA2
:10257000BA2FA02D0B01B90190010C01CA01A001D5
:102580001124FF27591B99F0593F50F4503E68F130
:102590001A16F040A22F232F342F4427585FF3CF71
:1025A000469537952795A795F0405395C9F77EF442
:1025B0001F16BA0B620B730B840BBAF09150A1F08B
:1025C000FF0FBB1F661F771F881FC2F70EC0BA0F11
:1025D000621F731F841F48F4879577956795B79599
:1025E000F7959E3F08F0B0CF9395880F08F0992794
:1025F000EE0F9795879508950E94DF1308F481E008
:1026000008950E9415130C941A140E94131458F084
:102610000E940C1440F029F45F3F29F00C9403143D
:1026200051110C944E140C9409140E942B1468F34D
:102630009923B1F3552391F3951B550BBB27AA277B
:1026400062177307840738F09F5F5F4F220F331FB5
:10265000441FAA1FA9F335D00E2E3AF0E0E832D07D
:1026600091505040E695001CCAF72BD0FE2F29D080
:10267000660F771F881FBB1F261737074807AB0752
:10268000B0E809F0BB0B802DBF01FF2793585F4FC7
:102690003AF09E3F510578F00C9403140C944E14BC
:1026A0005F3FE4F3983ED4F3869577956795B795A9
:1026B000F7959F5FC9F7880F911D9695879597F9B4
:1026C0000895E1E0660F771F881FBB1F621773072D
:1026D0008407BA0720F0621B730B840BBA0BEE1F42
:1026E00088F7E09508950E94331488F09F5798F07A
:1026F000B92F9927B751B0F0E1F0660F771F881F07
:10270000991F1AF0BA95C9F714C0B13091F00E9420
:102710004D14B1E008950C944D14672F782F88273D
:10272000B85F39F0B93FCCF3869577956795B39547
:10273000D9F73EF490958095709561957F4F8F4FB6
:102740009F4F0895E89409C097FB3EF490958095BB
:10275000709561957F4F8F4F9F4F9923A9F0F92F67
:1027600096E9BB279395F695879577956795B795E5
:10277000F111F8CFFAF4BB0F11F460FF1BC06F5FCB
:102780007F4F8F4F9F4F16C0882311F096E911C0DD
:10279000772321F09EE8872F762F05C0662371F0FE
:1027A00096E8862F70E060E02AF09A95660F771F12
:1027B000881FDAF7880F9695879597F90895990FEE
:1027C0000008550FAA0BE0E8FEEF16161706E807FB
:1027D000F907C0F012161306E407F50798F0621B1C
:1027E000730B840B950B39F40A2661F0232B242BF1
:1027F000252B21F408950A2609F4A140A6958FEF10
:10280000811D811D089597F99F6780E870E060E061
:1028100008959FEF80EC089500240A941616170679
:1028200018060906089500240A94121613061406C1
:1028300005060895092E0394000C11F4882352F024
:10284000BB0F40F4BF2B11F460FF04C06F5F7F4FDC
:102850008F4F9F4F089557FD9058440F551F59F0C3
:102860005F3F71F04795880F97FB991F61F09F3F7D
:1028700079F087950895121613061406551FF2CFA6
:102880004695F1DF08C0161617061806991FF1CFF6
:1028900086957105610508940895E894BB2766271D
:1028A0007727CB0197F908950E94DF1308F48FEF83
:1028B00008950E946C140C941A140E940C1438F0A1
:1028C0000E94131420F0952311F00C9403140C941F
:1028D000091411240C944E140E942B1470F3959F2C
:1028E000C1F3950F50E0551F629FF001729FBB2707
:1028F000F00DB11D639FAA27F00DB11DAA1F649FA3
:102900006627B00DA11D661F829F2227B00DA11D55
:10291000621F739FB00DA11D621F839FA00D611DDB
:10292000221F749F3327A00D611D231F849F600DFC
:10293000211D822F762F6A2F11249F5750409AF025
:10294000F1F088234AF0EE0FFF1FBB1F661F771FB1
:10295000881F91505040A9F79E3F510580F00C947C
:1029600003140C944E145F3FE4F3983ED4F3869521
:1029700077956795B795F795E7959F5FC1F7FE2B1C
:10298000880F911D9695879597F908950E94DF13FA
:10299000880B990B0895EE0FFF1F0590F491E02D21
:1029A0000994FC018191861721F08823D9F7992792
:1029B00008953197CF010895FB01DC018D910190BD
:1029C00080190110D9F3990B0895FB01DC014150E6
:1029D000504048F001900D920020C9F701C01D92AF
:1029E00041505040E0F70895F894FFCFB902B90282
:1029F000D001E701AD019E01C00181017401920186
:102A0000D00116027D011B029B01D001300244025D
:102A1000000000005A03BA02E702C2031803F602DC
:102A20000A030D0A006E616E00696E66006F7666BD
:102A3000006265686176696F72616C0074726163CF
:102A40006B696E6700747269616C5F737461746541
:102A50000070726F6A6563746F725F666C69700094
:102A6000747261636B696E675F70696E0074726126
:102A7000636B696E675F656E61626C65640074723A
:102A800061636B696E675F687A0062656861766929
:102A90006F72616C5F70696E006265686176696F04
:102AA00072616C5F656E61626C656400626568612D
:102AB00076696F72616C5F687A0020006964004318
:102AC0004150530050494E4700434F4E46494755E9
:102AD0005245007761746368646F675F6D7300319E
:102AE00000444941475F53544154555300444941C0
:102AF000475F53544F5000444941475F535441523C
:102B000054006B696E64006475726174696F6E5F06
:102B10006D730032303030004F46460062656861A8
:102B200076696F72616C5F73656C65637465640070
:102B3000747261636B696E675F73656C65637465FE
:062B400064004F4E00008E
:107E0000112484B714BE81FFF0D085E080938100F7
:107E100082E08093C00088E18093C10086E0809377
:107E2000C20080E18093C4008EE0C9D0259A86E02C
:107E300020E33CEF91E0309385002093840096BBD3
:107E4000B09BFECF1D9AA8958150A9F7CC24DD24C4
:107E500088248394B5E0AB2EA1E19A2EF3E0BF2EE7
:107E6000A2D0813461F49FD0082FAFD0023811F036
:107E7000013811F484E001C083E08DD089C08234E0
:107E800011F484E103C0853419F485E0A6D080C0E4
:107E9000853579F488D0E82EFF2485D0082F10E0AE
:107EA000102F00270E291F29000F111F8ED06801E7
:107EB0006FC0863521F484E090D080E0DECF843638
:107EC00009F040C070D06FD0082F6DD080E0C81688
:107ED00080E7D80618F4F601B7BEE895C0E0D1E017
:107EE00062D089930C17E1F7F0E0CF16F0E7DF06D8
:107EF00018F0F601B7BEE89568D007B600FCFDCFD4
:107F0000A601A0E0B1E02C9130E011968C91119780
:107F100090E0982F8827822B932B1296FA010C0160
:107F200087BEE89511244E5F5F4FF1E0A038BF0790
:107F300051F7F601A7BEE89507B600FCFDCF97BE46
:107F4000E89526C08437B1F42ED02DD0F82E2BD052
:107F50003CD0F601EF2C8F010F5F1F4F84911BD097
:107F6000EA94F801C1F70894C11CD11CFA94CF0C13
:107F7000D11C0EC0853739F428D08EE10CD085E9AC
:107F80000AD08FE07ACF813511F488E018D01DD067
:107F900080E101D065CF982F8091C00085FFFCCF94
:107FA0009093C60008958091C00087FFFCCF809118
:107FB000C00084FD01C0A8958091C6000895E0E648
:107FC000F0E098E1908380830895EDDF803219F02E
:107FD00088E0F5DFFFCF84E1DECF1F93182FE3DFCA
:107FE0001150E9F7F2DF1F91089580E0E8DFEE27F6
:047FF000FF270994CA
:027FFE00040479
:00000001FF
